{
  "_format": "hh-sol-artifact-1",
  "contractName": "BlindBid",
  "sourceName": "contracts/BlindBid.sol",
  "abi": [
    {
      "inputs": [
        {
          "internalType": "address",
          "name": "auctionAddress",
          "type": "address"
        },
        {
          "internalType": "bytes32",
          "name": "networkName",
          "type": "bytes32"
        }
      ],
      "stateMutability": "nonpayable",
      "type": "constructor"
    },
    {
      "inputs": [],
      "name": "AutoConfigUnavailable",
      "type": "error"
    },
    {
      "inputs": [],
      "name": "BidClosed",
      "type": "error"
    },
    {
      "inputs": [],
      "name": "InvalidBiddingTime",
      "type": "error"
    },
    {
      "inputs": [],
      "name": "InvalidPermission",
      "type": "error"
    },
    {
      "inputs": [],
      "name": "MissingRemoteAddr",
      "type": "error"
    },
    {
      "inputs": [],
      "name": "MissingRemoteChainId",
      "type": "error"
    },
    {
      "inputs": [],
      "name": "NotMessageBus",
      "type": "error"
    },
    {
      "inputs": [],
      "name": "NotRemoteEndpoint",
      "type": "error"
    },
    {
      "inputs": [],
      "name": "ReceiverError",
      "type": "error"
    },
    {
      "inputs": [],
      "name": "SelfCallDisallowed",
      "type": "error"
    },
    {
      "inputs": [],
      "name": "UnderReservePrice",
      "type": "error"
    },
    {
      "inputs": [
        {
          "internalType": "uint256",
          "name": "expected",
          "type": "uint256"
        },
        {
          "internalType": "uint256",
          "name": "got",
          "type": "uint256"
        }
      ],
      "name": "WrongSeqNum",
      "type": "error"
    },
    {
      "inputs": [
        {
          "internalType": "uint256",
          "name": "auctionId",
          "type": "uint256"
        }
      ],
      "name": "closeBid",
      "outputs": [],
      "stateMutability": "payable",
      "type": "function"
    },
    {
      "inputs": [
        {
          "internalType": "uint256",
          "name": "auctionId",
          "type": "uint256"
        },
        {
          "internalType": "bytes",
          "name": "encryptedBid",
          "type": "bytes"
        },
        {
          "internalType": "bytes32",
          "name": "nonce",
          "type": "bytes32"
        }
      ],
      "name": "commitBid",
      "outputs": [],
      "stateMutability": "payable",
      "type": "function"
    },
    {
      "inputs": [
        {
          "internalType": "uint256",
          "name": "auctionId",
          "type": "uint256"
        },
        {
          "internalType": "uint256",
          "name": "bid",
          "type": "uint256"
        }
      ],
      "name": "encryptBid",
      "outputs": [
        {
          "internalType": "bytes",
          "name": "encryptedBid",
          "type": "bytes"
        },
        {
          "internalType": "bytes",
          "name": "nonce",
          "type": "bytes"
        }
      ],
      "stateMutability": "view",
      "type": "function"
    },
    {
      "inputs": [
        {
          "internalType": "uint256",
          "name": "_msgLen",
          "type": "uint256"
        }
      ],
      "name": "estimateMsgFee",
      "outputs": [
        {
          "internalType": "uint256",
          "name": "",
          "type": "uint256"
        }
      ],
      "stateMutability": "view",
      "type": "function"
    },
    {
      "inputs": [
        {
          "internalType": "address",
          "name": "_sender",
          "type": "address"
        },
        {
          "internalType": "uint64",
          "name": "_senderChainId",
          "type": "uint64"
        },
        {
          "internalType": "bytes",
          "name": "_message",
          "type": "bytes"
        },
        {
          "internalType": "address",
          "name": "",
          "type": "address"
        }
      ],
      "name": "executeMessage",
      "outputs": [
        {
          "internalType": "uint256",
          "name": "",
          "type": "uint256"
        }
      ],
      "stateMutability": "payable",
      "type": "function"
    },
    {
      "inputs": [
        {
          "internalType": "uint256",
          "name": "auctionId",
          "type": "uint256"
        }
      ],
      "name": "getBid",
      "outputs": [
        {
          "internalType": "address",
          "name": "bidder",
          "type": "address"
        },
        {
          "internalType": "uint256",
          "name": "bid",
          "type": "uint256"
        }
      ],
      "stateMutability": "view",
      "type": "function"
    },
    {
      "inputs": [
        {
          "internalType": "uint256",
          "name": "auctionId",
          "type": "uint256"
        }
      ],
      "name": "getTotalBidders",
      "outputs": [
        {
          "internalType": "uint256",
          "name": "",
          "type": "uint256"
        }
      ],
      "stateMutability": "view",
      "type": "function"
    },
    {
      "inputs": [
        {
          "internalType": "address",
          "name": "forwarder",
          "type": "address"
        }
      ],
      "name": "isTrustedForwarder",
      "outputs": [
        {
          "internalType": "bool",
          "name": "",
          "type": "bool"
        }
      ],
      "stateMutability": "view",
      "type": "function"
    }
  ],
  "bytecode": "0x60e06040523480156200001157600080fd5b506040516200269838038062002698833981016040819052620000349162000db5565b8162000040826200018a565b46615aff146200005257600062000055565b60005b828281620000638262000373565b6200006f84846200039d565b60006001600160a01b0384166200009957604051635f9997df60e01b815260040160405180910390fd5b82600003620000bb57604051630a9e222360e41b815260040160405180910390fd5b600180546001600160a01b0319166001600160a01b03868116919091179091556002849055821660805280151560a052620000f5620003cd565b1580156200010257504683145b1562000121576040516336fc0b5f60e21b815260040160405180910390fd5b505050505050806001600160a01b031660c0816001600160a01b031681525050505050620001826040518060400160405280600981526020016818dc99585d19509a5960ba1b815250620003f760201b62000652176200043960201b60201c565b505062000eef565b60004661053914806200019e575046617a69145b15620001b35750641b1bd8d85b60da1b919050565b6000620001c04662000479565b915050801562000340578267657468657265756d60c01b03620001ee575065676f65726c6960d01b92915050565b826262736360e81b036200021257506a189cd8cb5d195cdd1b995d60aa1b92915050565b82663837b63cb3b7b760c91b036200023d57506d706f6c79676f6e2d6d756d62616960901b92915050565b826566616e746f6d60d01b036200026757506d19985b9d1bdb4b5d195cdd1b995d60921b92915050565b8267736170706869726560c01b036200029557506f1cd85c1c1a1a5c994b5d195cdd1b995d60821b92915050565b826b617262697472756d2d6f6e6560a01b03620002c757506f185c989a5d1c9d5b4b5d195cdd1b995d60821b92915050565b826c617262697472756d2d6e6f766160981b03620002fa57506f185c989a5d1c9d5b4b5d195cdd1b995d60821b92915050565b82686176616c616e63686560b81b036200032757506d6176616c616e6368652d66756a6960901b92915050565b60405163047a7e4960e21b815260040160405180910390fd5b6200034b8362000730565b6000036200036c5760405163047a7e4960e21b815260040160405180910390fd5b5090919050565b600081641b1bd8d85b60da1b036200038c575046919050565b620003978262000730565b92915050565b600081641b1bd8d85b60da1b03620003b757508162000397565b6000620003c44662000479565b50949350505050565b6001546080516000916001600160a01b039182169116148015620003f2575060025446145b905090565b600080808080806200040c8789018962000de6565b945094509450945094506200042b85858585856200093760201b60201c565b506002979650505050505050565b81516020928301206001600160e01b03191660009081526003909252604090912080546001600160401b0319166001600160401b03909216919091179055565b60008082600103620004a45750734066d196a423b2b3b8b054f4f40efb47a74e200c92600092509050565b82600503620004cc575073f25170f86e4291a99a9a560032fe9948b8bcfbb292600192509050565b82600a03620004f45750730d71d18126e03646eb09fec929e2ae87b7cae69d92600092509050565b826038036200051c57507395714818fdd7a5454f73da9c777b3ee6ebaeea6b92600092509050565b8260610362000544575073ad204986d6cb67a5bc76a3cb8974823f43cb9aaa92600192509050565b826089036200056c575073afdb9c40c7144022811f034ee07ce2e110093fe692600092509050565b8260fa0362000594575073ff4e183a0ceb4fa98e63bbf8077b929c8e5a2ba492600092509050565b82610fa203620005bd575073b92d6933a024bcca9a21669a480c236cbc97311092600192509050565b8261050503620005e6575073940daaba3f713abfabd79cdd991466fe698cbe5492600092509050565b82615afe036200060f5750739b36f165bab9ebe611d491180418d8de4b8f3a1f92600092509050565b82615aff03620006385750739bb46d5100d2db4608112026951c9c965b233f4d92600192509050565b8261a4b103620006615750733ad9d0648cdaa2426331e894e980d0a5ed16257f92600092509050565b8261a4ba036200068a575073f5c6825015280cdfd0b56903f9f8b5a2233476f592600092509050565b8261a86903620006b3575073e9533976c590200e32d95c53f06ae12d292cfc4792600192509050565b8261a86a03620006dc5750735a926eeeafc4d217add17e9641e8ce23cd01ad5792600092509050565b826201388103620007065750737d43aabc515c356145049227cee54b608342c0ad92600192509050565b8262066eeb03620003275750737d43aabc515c356145049227cee54b608342c0ad92600192509050565b60008167657468657265756d60c01b036200074d57506001919050565b8165676f65726c6960d01b036200076657506005919050565b81676f7074696d69736d60c01b03620007815750600a919050565b816262736360e81b036200079757506038919050565b816a189cd8cb5d195cdd1b995d60aa1b03620007b557506061919050565b81663837b63cb3b7b760c91b03620007cf57506089919050565b816566616e746f6d60d01b03620007e8575060fa919050565b816d19985b9d1bdb4b5d195cdd1b995d60921b036200080a5750610fa2919050565b816836b7b7b73934bb32b960b91b03620008275750610505919050565b816b617262697472756d2d6f6e6560a01b0362000847575061a4b1919050565b816c617262697472756d2d6e6f766160981b0362000868575061a4ba919050565b8167736170706869726560c01b03620008845750615afe919050565b816f1cd85c1c1a1a5c994b5d195cdd1b995d60821b03620008a85750615aff919050565b816d706f6c79676f6e2d6d756d62616960901b03620008cb575062013881919050565b81686176616c616e63686560b81b03620008e8575061a86a919050565b816d6176616c616e6368652d66756a6960901b036200090a575061a931919050565b816f185c989a5d1c9d5b4b5d195cdd1b995d60821b036200092f575062066eeb919050565b506000919050565b60006200094362000993565b600087815260208190526040902060018101979097556002870180546001600160a01b0319166001600160a01b039790971696909617909555506003850192909255600484015560058301559055565b600080620009bd602060405180602001604052806000815250620009fb60201b6200068a1760201c565b9050600080620009d88362000af160201b6200075d1760201c565b91509150620009f3828262000c9660201b620008e11760201c565b935050505090565b60606000807301000000000000000000000000000000000000016001600160a01b0316858560405160200162000a3392919062000e57565b60408051601f198184030181529082905262000a4f9162000e93565b600060405180830381855afa9150503d806000811462000a8c576040519150601f19603f3d011682016040523d82523d6000602084013e62000a91565b606091505b50915091508162000ae95760405162461bcd60e51b815260206004820152601360248201527f72616e646f6d42797465733a206661696c65640000000000000000000000000060448201526064015b60405180910390fd5b949350505050565b6000808062000b02602085620009fb565b905060f8801b8160008151811062000b1e5762000b1e62000eb1565b0160200180519091166001600160f81b03191690600082901a905350607f60f81b81601f8151811062000b555762000b5562000eb1565b0160200180519091166001600160f81b03191690600082901a905350604060f81b81601f8151811062000b8c5762000b8c62000eb1565b0160200180516001600160f81b031992831692169190911790600082901a9053506000807301000000000000000000000000000000000000086001600160a01b03168360405162000bde919062000e93565b600060405180830381855afa9150503d806000811462000c1b576040519150601f19603f3d011682016040523d82523d6000602084013e62000c20565b606091505b50915091508162000c745760405162461bcd60e51b815260206004820152601960248201527f67656e206375727665323535313920706b3a206661696c656400000000000000604482015260640162000ae0565b62000c7f8162000ec7565b62000c8a8462000ec7565b94509450505050915091565b60008060007301000000000000000000000000000000000000026001600160a01b0316858560405160200162000cd6929190918252602082015260400190565b60408051601f198184030181529082905262000cf29162000e93565b600060405180830381855afa9150503d806000811462000d2f576040519150601f19603f3d011682016040523d82523d6000602084013e62000d34565b606091505b50915091508162000d885760405162461bcd60e51b815260206004820152601a60248201527f64657269766553796d6d65747269634b65793a206661696c6564000000000000604482015260640162000ae0565b62000d938162000ec7565b95945050505050565b6001600160a01b038116811462000db257600080fd5b50565b6000806040838503121562000dc957600080fd5b825162000dd68162000d9c565b6020939093015192949293505050565b600080600080600060a0868803121562000dff57600080fd5b85359450602086013562000e138162000d9c565b94979496505050506040830135926060810135926080909101359150565b60005b8381101562000e4e57818101518382015260200162000e34565b50506000910152565b828152604060208201526000825180604084015262000e7e81606085016020870162000e31565b601f01601f1916919091016060019392505050565b6000825162000ea781846020870162000e31565b9190910192915050565b634e487b7160e01b600052603260045260246000fd5b8051602080830151919081101562000ee9576000198160200360031b1b821691505b50919050565b60805160a05160c05161175662000f4260003960006101240152600061044201526000818161037201528181610a4901528181610acf01528181610e0401528181610fbd01526110b601526117566000f3fe60806040526004361061007b5760003560e01c806363ab83251161004e57806363ab8325146101645780639c649fdf14610184578063f009565014610197578063f6a89810146101c557600080fd5b806311fc2c7d146100805780633c889e6f1461009557806348ac246f146100d9578063572b6c0514610107575b600080fd5b61009361008e3660046112b3565b6101d8565b005b3480156100a157600080fd5b506100b56100b0366004611306565b610315565b604080516001600160a01b0390931683526020830191909152015b60405180910390f35b3480156100e557600080fd5b506100f96100f4366004611306565b61033a565b6040519081526020016100d0565b34801561011357600080fd5b50610154610122366004611337565b7f00000000000000000000000000000000000000000000000000000000000000006001600160a01b0390811691161490565b60405190151581526020016100d0565b34801561017057600080fd5b506100f961017f366004611306565b61035a565b6100f9610192366004611354565b610365565b3480156101a357600080fd5b506101b76101b23660046113da565b610558565b6040516100d092919061144c565b6100936101d3366004611306565b610581565b60008481526020819052604090206006015460ff161561020b57604051630c3ca1a360e11b815260040160405180910390fd5b60008481526020819052604090206003015442101561023d5760405163023024b560e41b815260040160405180910390fd5b60008481526020819052604090206004015442111561026f5760405163023024b560e41b815260040160405180910390fd5b600084815260208181526040808320548151601f87018490048402810184019092528582526102bc929091859188908890819084018382808284376000920191909152506109c892505050565b6000868152602081905260409020600501549091508110156102f157604051635d8d890960e01b815260040160405180910390fd5b600085815260208190526040902061030d9060070133836109f1565b505050505050565b60008181526020819052604081203391906103339060070183610a07565b9050915091565b600081815260208190526040812061035490600701610a23565b92915050565b600061035482610a2e565b6000336001600160a01b037f000000000000000000000000000000000000000000000000000000000000000016146103b05760405163331f9a1960e11b815260040160405180910390fd5b6001546001600160a01b0387811691161415806103d957506002548567ffffffffffffffff1614155b156103f757604051636e3ae14560e01b815260040160405180910390fd5b60006104066004828688611471565b61040f9161149b565b90506000610421602460048789611471565b61042a916114cb565b905036600061043c876024818b611471565b915091507f0000000000000000000000000000000000000000000000000000000000000000156104af57600554831461049b5760055460405163d0257bb160e01b81526004810191909152602481018490526044015b60405180910390fd5b6005600081546104aa906114ff565b909155505b6001600160e01b031984166000908152600360205260408120546112678115021767ffffffffffffffff8116918215916104ef908690869063ffffffff16565b9050600181600281111561050557610505611518565b0361051a57600297505050505050505061054f565b600281600281111561052e5761052e611518565b0361054357600197505050505050505061054f565b60009750505050505050505b95945050505050565b60008281526020819052604090205460609081906105769084610b65565b909590945092505050565b6000818152602081905260409020600201546001600160a01b031633146105bb57604051634345326f60e11b815260040160405180910390fd5b6000818152602081905260408120600601805460ff19166001179055806105e183610bb8565b9150915061064d60405180604001604052806009815260200168189a5910db1bdcd95960ba1b815250848484604051602001610639939291909283526001600160a01b03919091166020830152604082015260600190565b604051602081830303815290604052610c2b565b505050565b600080808080806106658789018961152e565b9450945094509450945061067c8585858585610c35565b506002979650505050505050565b60606000806001600160981b016001600160a01b031685856040516020016106b3929190611576565b60408051601f19818403018152908290526106cd9161158f565b600060405180830381855afa9150503d8060008114610708576040519150601f19603f3d011682016040523d82523d6000602084013e61070d565b606091505b5091509150816107555760405162461bcd60e51b81526020600482015260136024820152721c985b991bdb509e5d195cce8819985a5b1959606a1b6044820152606401610492565b949350505050565b600080600061076d60208561068a565b905060f8801b81600081518110610786576107866115ab565b0160200180519091166001600160f81b03191690600082901a905350607f60f81b81601f815181106107ba576107ba6115ab565b0160200180519091166001600160f81b03191690600082901a905350604060f81b81601f815181106107ee576107ee6115ab565b0160200180516001600160f81b031992831692169190911790600082901a9053506000806008600160981b016001600160a01b031683604051610831919061158f565b600060405180830381855afa9150503d806000811461086c576040519150601f19603f3d011682016040523d82523d6000602084013e610871565b606091505b5091509150816108c35760405162461bcd60e51b815260206004820152601960248201527f67656e206375727665323535313920706b3a206661696c6564000000000000006044820152606401610492565b6108cc816115c1565b6108d5846115c1565b94509450505050915091565b60008060006002600160981b016001600160a01b03168585604051602001610913929190918252602082015260400190565b60408051601f198184030181529082905261092d9161158f565b600060405180830381855afa9150503d8060008114610968576040519150601f19603f3d011682016040523d82523d6000602084013e61096d565b606091505b5091509150816109bf5760405162461bcd60e51b815260206004820152601a60248201527f64657269766553796d6d65747269634b65793a206661696c65640000000000006044820152606401610492565b61054f816115c1565b6000806109e685858560405180602001604052806000815250610c8f565b905061054f816115c1565b6000610755846001600160a01b03851684610d64565b6000610a1c836001600160a01b038416610d81565b9392505050565b600061035482610df1565b6000610a38610dfc565b15610a4557506000919050565b60007f00000000000000000000000000000000000000000000000000000000000000006001600160a01b03166395e911a86040518163ffffffff1660e01b8152600401602060405180830381865afa158015610aa5573d6000803e3d6000fd5b505050506040513d601f19601f82011682018060405250810190610ac991906115e8565b905060007f00000000000000000000000000000000000000000000000000000000000000006001600160a01b031663f60bbe2a6040518163ffffffff1660e01b8152600401602060405180830381865afa158015610b2b573d6000803e3d6000fd5b505050506040513d601f19601f82011682018060405250810190610b4f91906115e8565b9050610b5b8185611601565b6107559083611618565b606080610b8260206040518060200160405280600081525061068a565b9050610baf84610b91836115c1565b610b9a86610e43565b60405180602001604052806000815250610e6d565b91509250929050565b60008080805b6000858152602081905260409020610bd890600701610a23565b811015610c245760008581526020819052604081208190610bfc9060070184610f38565b9150915083811115610c0f578195508094505b50508080610c1c906114ff565b915050610bbe565b5050915091565b61064d8282610f56565b6000610c3f611141565b600087815260208190526040902060018101979097556002870180546001600160a01b0319166001600160a01b039790971696909617909555506003850192909255600484015560058301559055565b60606000806004600160981b016001600160a01b031687878787604051602001610cbc949392919061162b565b60408051601f1981840301815290829052610cd69161158f565b600060405180830381855afa9150503d8060008114610d11576040519150601f19603f3d011682016040523d82523d6000602084013e610d16565b606091505b509150915081610d5a5760405162461bcd60e51b815260206004820152600f60248201526e191958dc9e5c1d0e8819985a5b1959608a1b6044820152606401610492565b9695505050505050565b600082815260028401602052604081208290556107558484611182565b600081815260028301602052604081205480151580610da55750610da5848461118e565b610a1c5760405162461bcd60e51b815260206004820152601e60248201527f456e756d657261626c654d61703a206e6f6e6578697374656e74206b657900006044820152606401610492565b60006103548261119a565b6001546000907f00000000000000000000000000000000000000000000000000000000000000006001600160a01b039081169116148015610e3e575060025446145b905090565b60408051602080825281830190925260609160208201818036833750505060208101929092525090565b60606000806003600160981b016001600160a01b031687878787604051602001610e9a949392919061162b565b60408051601f1981840301815290829052610eb49161158f565b600060405180830381855afa9150503d8060008114610eef576040519150601f19603f3d011682016040523d82523d6000602084013e610ef4565b606091505b509150915081610d5a5760405162461bcd60e51b815260206004820152600f60248201526e195b98dc9e5c1d0e8819985a5b1959608a1b6044820152606401610492565b6000808080610f4786866111a4565b909450925050505b9250929050565b600080838051906020012060045484604051602001610f7793929190611667565b60405160208183030381529060405290506000610f948251610a2e565b9050610f9e610dfc565b1561109957604051639c649fdf60e01b81526000906001600160a01b037f00000000000000000000000000000000000000000000000000000000000000001690639c649fdf90610ff890309046908890839060040161169d565b6020604051808303816000875af1158015611017573d6000803e3d6000fd5b505050506040513d601f19601f8201168201806040525081019061103b91906115e8565b90508060011461105e57604051631dc9e9b560e31b815260040160405180910390fd5b81156110935760405160009083156108fc0290849083818181858288f19350505050158015611091573d6000803e3d6000fd5b505b50611126565b600154600254604051634f9e72ad60e11b81526001600160a01b037f0000000000000000000000000000000000000000000000000000000000000000811693639f3ce55a9386936110f393929092169188906004016116e3565b6000604051808303818588803b15801561110c57600080fd5b505af1158015611120573d6000803e3d6000fd5b50505050505b600460008154611135906114ff565b90915550949350505050565b60008061115e60206040518060200160405280600081525061068a565b905060008061116c8361075d565b9150915061117a82826108e1565b935050505090565b6000610a1c83836111cf565b6000610a1c838361121e565b6000610354825490565b600080806111b28585611236565b600081815260029690960160205260409095205494959350505050565b600081815260018301602052604081205461121657508154600181810184556000848152602080822090930184905584548482528286019093526040902091909155610354565b506000610354565b60008181526001830160205260408120541515610a1c565b6000610a1c83836000826000018281548110611254576112546115ab565b9060005260206000200154905092915050565b61126f61170a565b565b60008083601f84011261128357600080fd5b50813567ffffffffffffffff81111561129b57600080fd5b602083019150836020828501011115610f4f57600080fd5b600080600080606085870312156112c957600080fd5b84359350602085013567ffffffffffffffff8111156112e757600080fd5b6112f387828801611271565b9598909750949560400135949350505050565b60006020828403121561131857600080fd5b5035919050565b6001600160a01b038116811461133457600080fd5b50565b60006020828403121561134957600080fd5b8135610a1c8161131f565b60008060008060006080868803121561136c57600080fd5b85356113778161131f565b9450602086013567ffffffffffffffff808216821461139557600080fd5b909450604087013590808211156113ab57600080fd5b506113b888828901611271565b90945092505060608601356113cc8161131f565b809150509295509295909350565b600080604083850312156113ed57600080fd5b50508035926020909101359150565b60005b838110156114175781810151838201526020016113ff565b50506000910152565b600081518084526114388160208601602086016113fc565b601f01601f19169290920160200192915050565b60408152600061145f6040830185611420565b828103602084015261054f8185611420565b6000808585111561148157600080fd5b8386111561148e57600080fd5b5050820193919092039150565b6001600160e01b031981358181169160048510156114c35780818660040360031b1b83161692505b505092915050565b8035602083101561035457600019602084900360031b1b1692915050565b634e487b7160e01b600052601160045260246000fd5b600060018201611511576115116114e9565b5060010190565b634e487b7160e01b600052602160045260246000fd5b600080600080600060a0868803121561154657600080fd5b8535945060208601356115588161131f565b94979496505050506040830135926060810135926080909101359150565b8281526040602082015260006107556040830184611420565b600082516115a18184602087016113fc565b9190910192915050565b634e487b7160e01b600052603260045260246000fd5b805160208083015191908110156115e2576000198160200360031b1b821691505b50919050565b6000602082840312156115fa57600080fd5b5051919050565b8082028115828204841417610354576103546114e9565b80820180821115610354576103546114e9565b84815283602082015260806040820152600061164a6080830185611420565b828103606084015261165c8185611420565b979650505050505050565b63ffffffff60e01b841681528260048201526000825161168e8160248501602087016113fc565b91909101602401949350505050565b600060018060a01b03808716835267ffffffffffffffff86166020840152608060408401526116cf6080840186611420565b915080841660608401525095945050505050565b60018060a01b038416815282602082015260606040820152600061054f6060830184611420565b634e487b7160e01b600052605160045260246000fdfea2646970667358221220a07db48eb5c2a8cf81b8485d51980657a3f0eb2751de09ea89963f76d63ed71a64736f6c63430008120033",
  "linkReferences": {},
  "deployedLinkReferences": {}
}