{
  "_format": "hh-sol-artifact-1",
  "contractName": "BlindAuction",
  "sourceName": "contracts/BlindAuction.sol",
  "abi": [
    {
      "inputs": [
        {
          "internalType": "address",
          "name": "bidAddress",
          "type": "address"
        }
      ],
      "stateMutability": "nonpayable",
      "type": "constructor"
    },
    {
      "inputs": [],
      "name": "AuctionNotClosed",
      "type": "error"
    },
    {
      "inputs": [],
      "name": "AutoConfigUnavailable",
      "type": "error"
    },
    {
      "inputs": [],
      "name": "InvalidAuctionId",
      "type": "error"
    },
    {
      "inputs": [],
      "name": "InvalidHighestBidPrice",
      "type": "error"
    },
    {
      "inputs": [],
      "name": "InvalidHighestBidder",
      "type": "error"
    },
    {
      "inputs": [],
      "name": "MissingRemoteAddr",
      "type": "error"
    },
    {
      "inputs": [],
      "name": "MissingRemoteChainId",
      "type": "error"
    },
    {
      "inputs": [],
      "name": "NotMessageBus",
      "type": "error"
    },
    {
      "inputs": [],
      "name": "NotRemoteEndpoint",
      "type": "error"
    },
    {
      "inputs": [],
      "name": "ReceiverError",
      "type": "error"
    },
    {
      "inputs": [],
      "name": "SelfCallDisallowed",
      "type": "error"
    },
    {
      "inputs": [
        {
          "internalType": "uint256",
          "name": "expected",
          "type": "uint256"
        },
        {
          "internalType": "uint256",
          "name": "got",
          "type": "uint256"
        }
      ],
      "name": "WrongSeqNum",
      "type": "error"
    },
    {
      "inputs": [],
      "name": "auctionCount",
      "outputs": [
        {
          "internalType": "uint256",
          "name": "",
          "type": "uint256"
        }
      ],
      "stateMutability": "view",
      "type": "function"
    },
    {
      "inputs": [
        {
          "internalType": "uint256",
          "name": "",
          "type": "uint256"
        }
      ],
      "name": "auctions",
      "outputs": [
        {
          "internalType": "uint256",
          "name": "id",
          "type": "uint256"
        },
        {
          "internalType": "string",
          "name": "name",
          "type": "string"
        },
        {
          "internalType": "address",
          "name": "auctioneer",
          "type": "address"
        },
        {
          "internalType": "address",
          "name": "tokenAddress",
          "type": "address"
        },
        {
          "internalType": "uint256",
          "name": "tokenId",
          "type": "uint256"
        },
        {
          "internalType": "uint256",
          "name": "startTime",
          "type": "uint256"
        },
        {
          "internalType": "uint256",
          "name": "endTime",
          "type": "uint256"
        },
        {
          "internalType": "uint256",
          "name": "reservePrice",
          "type": "uint256"
        },
        {
          "internalType": "address",
          "name": "highestBidder",
          "type": "address"
        },
        {
          "internalType": "uint256",
          "name": "highestBid",
          "type": "uint256"
        },
        {
          "internalType": "bool",
          "name": "closed",
          "type": "bool"
        }
      ],
      "stateMutability": "view",
      "type": "function"
    },
    {
      "inputs": [
        {
          "internalType": "uint256",
          "name": "auctionId",
          "type": "uint256"
        }
      ],
      "name": "claim",
      "outputs": [],
      "stateMutability": "payable",
      "type": "function"
    },
    {
      "inputs": [
        {
          "internalType": "address",
          "name": "tokenAddress",
          "type": "address"
        },
        {
          "internalType": "uint256",
          "name": "tokenId",
          "type": "uint256"
        },
        {
          "internalType": "string",
          "name": "name",
          "type": "string"
        },
        {
          "internalType": "uint256",
          "name": "startTime",
          "type": "uint256"
        },
        {
          "internalType": "uint256",
          "name": "endTime",
          "type": "uint256"
        },
        {
          "internalType": "uint256",
          "name": "reservePrice",
          "type": "uint256"
        }
      ],
      "name": "create",
      "outputs": [
        {
          "internalType": "uint256",
          "name": "",
          "type": "uint256"
        }
      ],
      "stateMutability": "payable",
      "type": "function"
    },
    {
      "inputs": [
        {
          "internalType": "uint256",
          "name": "_msgLen",
          "type": "uint256"
        }
      ],
      "name": "estimateMsgFee",
      "outputs": [
        {
          "internalType": "uint256",
          "name": "",
          "type": "uint256"
        }
      ],
      "stateMutability": "view",
      "type": "function"
    },
    {
      "inputs": [
        {
          "internalType": "address",
          "name": "_sender",
          "type": "address"
        },
        {
          "internalType": "uint64",
          "name": "_senderChainId",
          "type": "uint64"
        },
        {
          "internalType": "bytes",
          "name": "_message",
          "type": "bytes"
        },
        {
          "internalType": "address",
          "name": "",
          "type": "address"
        }
      ],
      "name": "executeMessage",
      "outputs": [
        {
          "internalType": "uint256",
          "name": "",
          "type": "uint256"
        }
      ],
      "stateMutability": "payable",
      "type": "function"
    }
  ],
  "bytecode": "0x60c06040523480156200001157600080fd5b5060405162001c4738038062001c4783398101604081905262000034916200094c565b80806200004c67736170706869726560c01b62000162565b8162000058826200034b565b62000064848462000375565b60006001600160a01b0384166200008e57604051635f9997df60e01b815260040160405180910390fd5b82600003620000b057604051630a9e222360e41b815260040160405180910390fd5b600280546001600160a01b0319166001600160a01b03868116919091179091556003849055821660805280151560a052620000ea620003a5565b158015620000f757504683145b1562000116576040516336fc0b5f60e21b815260040160405180910390fd5b505050505050506200015b60405180604001604052806009815260200168189a5910db1bdcd95960ba1b815250620003cf60201b62000842176200043560201b60201c565b50620009ae565b600046610539148062000176575046617a69145b156200018b5750641b1bd8d85b60da1b919050565b6000620001984662000475565b915050801562000318578267657468657265756d60c01b03620001c6575065676f65726c6960d01b92915050565b826262736360e81b03620001ea57506a189cd8cb5d195cdd1b995d60aa1b92915050565b82663837b63cb3b7b760c91b036200021557506d706f6c79676f6e2d6d756d62616960901b92915050565b826566616e746f6d60d01b036200023f57506d19985b9d1bdb4b5d195cdd1b995d60921b92915050565b8267736170706869726560c01b036200026d57506f1cd85c1c1a1a5c994b5d195cdd1b995d60821b92915050565b826b617262697472756d2d6f6e6560a01b036200029f57506f185c989a5d1c9d5b4b5d195cdd1b995d60821b92915050565b826c617262697472756d2d6e6f766160981b03620002d257506f185c989a5d1c9d5b4b5d195cdd1b995d60821b92915050565b82686176616c616e63686560b81b03620002ff57506d6176616c616e6368652d66756a6960901b92915050565b60405163047a7e4960e21b815260040160405180910390fd5b62000323836200072c565b600003620003445760405163047a7e4960e21b815260040160405180910390fd5b5090919050565b600081641b1bd8d85b60da1b0362000364575046919050565b6200036f826200072c565b92915050565b600081641b1bd8d85b60da1b036200038f5750816200036f565b60006200039c4662000475565b50949350505050565b6002546080516000916001600160a01b039182169116148015620003ca575060035446145b905090565b6000808080620003e28587018762000973565b60008381526020819052604090206008810180546001600160a01b0319166001600160a01b03851617905560098101829055600a01805460ff191660011790559194509250905050600295945050505050565b81516020928301206001600160e01b03191660009081526004909252604090912080546001600160401b0319166001600160401b03909216919091179055565b60008082600103620004a05750734066d196a423b2b3b8b054f4f40efb47a74e200c92600092509050565b82600503620004c8575073f25170f86e4291a99a9a560032fe9948b8bcfbb292600192509050565b82600a03620004f05750730d71d18126e03646eb09fec929e2ae87b7cae69d92600092509050565b826038036200051857507395714818fdd7a5454f73da9c777b3ee6ebaeea6b92600092509050565b8260610362000540575073ad204986d6cb67a5bc76a3cb8974823f43cb9aaa92600192509050565b8260890362000568575073afdb9c40c7144022811f034ee07ce2e110093fe692600092509050565b8260fa0362000590575073ff4e183a0ceb4fa98e63bbf8077b929c8e5a2ba492600092509050565b82610fa203620005b9575073b92d6933a024bcca9a21669a480c236cbc97311092600192509050565b8261050503620005e2575073940daaba3f713abfabd79cdd991466fe698cbe5492600092509050565b82615afe036200060b5750739b36f165bab9ebe611d491180418d8de4b8f3a1f92600092509050565b82615aff03620006345750739bb46d5100d2db4608112026951c9c965b233f4d92600192509050565b8261a4b1036200065d5750733ad9d0648cdaa2426331e894e980d0a5ed16257f92600092509050565b8261a4ba0362000686575073f5c6825015280cdfd0b56903f9f8b5a2233476f592600092509050565b8261a86903620006af575073e9533976c590200e32d95c53f06ae12d292cfc4792600192509050565b8261a86a03620006d85750735a926eeeafc4d217add17e9641e8ce23cd01ad5792600092509050565b826201388103620007025750737d43aabc515c356145049227cee54b608342c0ad92600192509050565b8262066eeb03620002ff5750737d43aabc515c356145049227cee54b608342c0ad92600192509050565b60008167657468657265756d60c01b036200074957506001919050565b8165676f65726c6960d01b036200076257506005919050565b81676f7074696d69736d60c01b036200077d5750600a919050565b816262736360e81b036200079357506038919050565b816a189cd8cb5d195cdd1b995d60aa1b03620007b157506061919050565b81663837b63cb3b7b760c91b03620007cb57506089919050565b816566616e746f6d60d01b03620007e4575060fa919050565b816d19985b9d1bdb4b5d195cdd1b995d60921b03620008065750610fa2919050565b816836b7b7b73934bb32b960b91b03620008235750610505919050565b816b617262697472756d2d6f6e6560a01b0362000843575061a4b1919050565b816c617262697472756d2d6e6f766160981b0362000864575061a4ba919050565b8167736170706869726560c01b03620008805750615afe919050565b816f1cd85c1c1a1a5c994b5d195cdd1b995d60821b03620008a45750615aff919050565b816d706f6c79676f6e2d6d756d62616960901b03620008c7575062013881919050565b81686176616c616e63686560b81b03620008e4575061a86a919050565b816d6176616c616e6368652d66756a6960901b0362000906575061a931919050565b816f185c989a5d1c9d5b4b5d195cdd1b995d60821b036200092b575062066eeb919050565b506000919050565b6001600160a01b03811681146200094957600080fd5b50565b6000602082840312156200095f57600080fd5b81516200096c8162000933565b9392505050565b6000806000606084860312156200098957600080fd5b8335925060208401356200099d8162000933565b929592945050506040919091013590565b60805160a051611250620009f7600039600061072d01526000818161065d015281816108c101528181610947015281816109fc01528181610aa20152610b9b01526112506000f3fe6080604052600436106100555760003560e01c80632ad715731461005a578063379607f514610083578063571a26a01461009857806363ab8325146100cf5780638914a7ce146100ef5780639c649fdf14610102575b600080fd5b34801561006657600080fd5b5061007060015481565b6040519081526020015b60405180910390f35b610096610091366004610c30565b610115565b005b3480156100a457600080fd5b506100b86100b3366004610c30565b6103f0565b60405161007a9b9a99989796959493929190610c99565b3480156100db57600080fd5b506100706100ea366004610c30565b6104e0565b6100706100fd366004610d50565b6104f1565b610070610110366004610e39565b610650565b60015481111561013857604051636850579960e01b815260040160405180910390fd5b6000806000838152602001908152602001600020604051806101600160405290816000820154815260200160018201805461017290610ee9565b80601f016020809104026020016040519081016040528092919081815260200182805461019e90610ee9565b80156101eb5780601f106101c0576101008083540402835291602001916101eb565b820191906000526020600020905b8154815290600101906020018083116101ce57829003601f168201915b505050918352505060028201546001600160a01b0390811660208301526003830154811660408301526004830154606083015260058301546080830152600683015460a0830152600783015460c083015260088301541660e08201526009820154610100820152600a9091015460ff1615156101209091015261014081015190915061028a5760405163b9adeefd60e01b815260040160405180910390fd5b6101008101516001600160a01b0316156103775780610120015134146102c357604051634a9084b360e11b815260040160405180910390fd5b8061010001516001600160a01b0316336001600160a01b0316146102fa5760405163d6fe692f60e01b815260040160405180910390fd5b606081015161010082015160808301516040516323b872dd60e01b81523060048201526001600160a01b03928316602482015260448101919091529116906323b872dd90606401600060405180830381600087803b15801561035b57600080fd5b505af115801561036f573d6000803e3d6000fd5b505050505050565b60408101516001600160a01b031633036103ec576060810151604080830151608084015191516323b872dd60e01b81523060048201526001600160a01b0391821660248201526044810192909252909116906323b872dd90606401600060405180830381600087803b15801561035b57600080fd5b5050565b6000602081905290815260409020805460018201805491929161041290610ee9565b80601f016020809104026020016040519081016040528092919081815260200182805461043e90610ee9565b801561048b5780601f106104605761010080835404028352916020019161048b565b820191906000526020600020905b81548152906001019060200180831161046e57829003601f168201915b50505050600283015460038401546004850154600586015460068701546007880154600889015460098a0154600a909a015498996001600160a01b039788169996881698509496939592949193169160ff168b565b60006104eb826108a6565b92915050565b600180546000918261050283610f39565b90915550506001805460008181526020819052604090208181559091810161052a8882610f98565b506002810180546001600160a01b0319908116339081179092556003830180546001600160a01b038d1692168217905560048084018b9055600584018990556006840188905560078401879055600a8401805460ff191690556040516323b872dd60e01b815290810192909252306024830152604482018a9052906323b872dd90606401600060405180830381600087803b1580156105c857600080fd5b505af11580156105dc573d6000803e3d6000fd5b5050604080518082018252600981526818dc99585d19509a5960ba1b60208083019190915282519081018790523392810192909252606082018a90526080820189905260a082018890526106449350915060c0016040516020818303038152906040526109e5565b50979650505050505050565b6000336001600160a01b037f0000000000000000000000000000000000000000000000000000000000000000161461069b5760405163331f9a1960e11b815260040160405180910390fd5b6002546001600160a01b0387811691161415806106c457506003548567ffffffffffffffff1614155b156106e257604051636e3ae14560e01b815260040160405180910390fd5b60006106f16004828688611058565b6106fa91611082565b9050600061070c602460048789611058565b610715916110b2565b9050366000610727876024818b611058565b915091507f0000000000000000000000000000000000000000000000000000000000000000156107995760065483146107855760065460405163d0257bb160e01b815260048101919091526024810184905260440160405180910390fd5b60066000815461079490610f39565b909155505b6001600160e01b03198416600090815260046020526040812054610c268115021767ffffffffffffffff8116918215916107d9908690869063ffffffff16565b905060018160028111156107ef576107ef6110d0565b03610804576002975050505050505050610839565b6002816002811115610818576108186110d0565b0361082d576001975050505050505050610839565b60009750505050505050505b95945050505050565b6000808080610853858701876110e6565b60008381526020819052604090206008810180546001600160a01b0319166001600160a01b03851617905560098101829055600a01805460ff191660011790559194509250905050600295945050505050565b60006108b06109f4565b156108bd57506000919050565b60007f00000000000000000000000000000000000000000000000000000000000000006001600160a01b03166395e911a86040518163ffffffff1660e01b8152600401602060405180830381865afa15801561091d573d6000803e3d6000fd5b505050506040513d601f19601f82011682018060405250810190610941919061111e565b905060007f00000000000000000000000000000000000000000000000000000000000000006001600160a01b031663f60bbe2a6040518163ffffffff1660e01b8152600401602060405180830381865afa1580156109a3573d6000803e3d6000fd5b505050506040513d601f19601f820116820180604052508101906109c7919061111e565b90506109d38185611137565b6109dd908361114e565b949350505050565b6109ef8282610a3b565b505050565b6002546000907f00000000000000000000000000000000000000000000000000000000000000006001600160a01b039081169116148015610a36575060035446145b905090565b600080838051906020012060055484604051602001610a5c93929190611161565b60405160208183030381529060405290506000610a7982516108a6565b9050610a836109f4565b15610b7e57604051639c649fdf60e01b81526000906001600160a01b037f00000000000000000000000000000000000000000000000000000000000000001690639c649fdf90610add903090469088908390600401611197565b6020604051808303816000875af1158015610afc573d6000803e3d6000fd5b505050506040513d601f19601f82011682018060405250810190610b20919061111e565b905080600114610b4357604051631dc9e9b560e31b815260040160405180910390fd5b8115610b785760405160009083156108fc0290849083818181858288f19350505050158015610b76573d6000803e3d6000fd5b505b50610c0b565b600254600354604051634f9e72ad60e11b81526001600160a01b037f0000000000000000000000000000000000000000000000000000000000000000811693639f3ce55a938693610bd893929092169188906004016111dd565b6000604051808303818588803b158015610bf157600080fd5b505af1158015610c05573d6000803e3d6000fd5b50505050505b600560008154610c1a90610f39565b90915550949350505050565b610c2e611204565b565b600060208284031215610c4257600080fd5b5035919050565b60005b83811015610c64578181015183820152602001610c4c565b50506000910152565b60008151808452610c85816020860160208601610c49565b601f01601f19169290920160200192915050565b60006101608d8352806020840152610cb38184018e610c6d565b6001600160a01b039c8d1660408501529a8c1660608401525050608081019790975260a087019590955260c086019390935260e08501919091529094166101008301526101208201939093529115156101409092019190915292915050565b6001600160a01b0381168114610d2757600080fd5b50565b8035610d3581610d12565b919050565b634e487b7160e01b600052604160045260246000fd5b60008060008060008060c08789031215610d6957600080fd5b8635610d7481610d12565b955060208701359450604087013567ffffffffffffffff80821115610d9857600080fd5b818901915089601f830112610dac57600080fd5b813581811115610dbe57610dbe610d3a565b604051601f8201601f19908116603f01168101908382118183101715610de657610de6610d3a565b816040528281528c6020848701011115610dff57600080fd5b826020860160208301376000602084830101528098505050505050606087013592506080870135915060a087013590509295509295509295565b600080600080600060808688031215610e5157600080fd5b8535610e5c81610d12565b9450602086013567ffffffffffffffff8082168214610e7a57600080fd5b90945060408701359080821115610e9057600080fd5b818801915088601f830112610ea457600080fd5b813581811115610eb357600080fd5b896020828501011115610ec557600080fd5b602083019550809450505050610edd60608701610d2a565b90509295509295909350565b600181811c90821680610efd57607f821691505b602082108103610f1d57634e487b7160e01b600052602260045260246000fd5b50919050565b634e487b7160e01b600052601160045260246000fd5b600060018201610f4b57610f4b610f23565b5060010190565b601f8211156109ef57600081815260208120601f850160051c81016020861015610f795750805b601f850160051c820191505b8181101561036f57828155600101610f85565b815167ffffffffffffffff811115610fb257610fb2610d3a565b610fc681610fc08454610ee9565b84610f52565b602080601f831160018114610ffb5760008415610fe35750858301515b600019600386901b1c1916600185901b17855561036f565b600085815260208120601f198616915b8281101561102a5788860151825594840194600190910190840161100b565b50858210156110485787850151600019600388901b60f8161c191681555b5050505050600190811b01905550565b6000808585111561106857600080fd5b8386111561107557600080fd5b5050820193919092039150565b6001600160e01b031981358181169160048510156110aa5780818660040360031b1b83161692505b505092915050565b803560208310156104eb57600019602084900360031b1b1692915050565b634e487b7160e01b600052602160045260246000fd5b6000806000606084860312156110fb57600080fd5b83359250602084013561110d81610d12565b929592945050506040919091013590565b60006020828403121561113057600080fd5b5051919050565b80820281158282048414176104eb576104eb610f23565b808201808211156104eb576104eb610f23565b63ffffffff60e01b8416815282600482015260008251611188816024850160208701610c49565b91909101602401949350505050565b600060018060a01b03808716835267ffffffffffffffff86166020840152608060408401526111c96080840186610c6d565b915080841660608401525095945050505050565b60018060a01b03841681528260208201526060604082015260006108396060830184610c6d565b634e487b7160e01b600052605160045260246000fdfea26469706673582212205e21afb9587288673ac19b711ab7a91a1c706b8313cacb77f32ee0eabd1cacb964736f6c63430008120033",
  "linkReferences": {},
  "deployedLinkReferences": {}
}